S00B00004C43442E7372656346
S11300000C942A000C943F000C943F000C943F0085
S11300100C943F000C943F000C943F000C943F0060
S11300200C943F000C943F000C943F000C943F0050
S11300300C943F000C943F000C943F000C943F0040
S11300400C943F000C943F000C943F000C943F0030
S11300500C943F0011241FBECFE5D8E0DEBFCDBF16
S113006010E0A0E6B0E0E0E2F2E002C005900D92FC
S1130070A037B107D9F70E9441000C940E010C94EB
S113008000008FEF84BB87BB0E948A0061E070E0B0
S113009081E090E00E94FD0080E690E00E94E20092
S11300A069E070E082E090E00E94FD0089E690E063
S11300B00E94E200FFCF85BB89EF90E00197F1F742
S11300C000C0000080E288BB89EF90E00197F1F75F
S11300D000C0000018BA83EC99E00197F1F700C062
S11300E000000895CF93C82F807F0E945B0089EFA2
S11300F090E00197F1F700C000008C2F8295807F7B
S11301000E945B0089EF90E00197F1F700C00000C6
S1130110CF91089582E00E94720089EF90E00197E8
S1130120F1F700C0000088E20E94720089EF90E0BD
S11301300197F1F700C000008CE00E94720089EF83
S113014090E00197F1F700C0000086E00E94720081
S113015089EF90E00197F1F700C0000080E80E9469
S1130160720089EF90E00197F1F700C00000089554
S113017085BB80EA88BB89EF90E00197F1F700C066
S1130180000080E888BB83EC99E00197F1F700C098
S113019000000895CF93C82F807F0E94B80089EF94
S11301A090E00197F1F700C000008C2F8295807FCA
S11301B00E94B80089EF90E00197F1F700C00000B9
S11301C0CF9108950F931F93CF93DF938C01C0E0D9
S11301D0D0E009C00E94CA002196C031D10519F4AB
S11301E080EC0E947200F80181918F018111F2CF9D
S11301F0DF91CF911F910F91089561507109813062
S1130200910529F480E8860F0E94720008950297F0
S113021021F480EC860F0E9472000895F894FFCFB9
S11302204D6F68616D6D6164004B68616C6564005D
S9030000FC
